{
    "contractName": "Bonez",
    "abi": [
        {
            "inputs": [],
            "stateMutability": "nonpayable",
            "type": "constructor"
        },
        {
            "anonymous": false,
            "inputs": [
                {
                    "indexed": true,
                    "internalType": "address",
                    "name": "owner",
                    "type": "address"
                },
                {
                    "indexed": true,
                    "internalType": "address",
                    "name": "approved",
                    "type": "address"
                },
                {
                    "indexed": true,
                    "internalType": "uint256",
                    "name": "tokenId",
                    "type": "uint256"
                }
            ],
            "name": "Approval",
            "type": "event"
        },
        {
            "anonymous": false,
            "inputs": [
                {
                    "indexed": true,
                    "internalType": "address",
                    "name": "owner",
                    "type": "address"
                },
                {
                    "indexed": true,
                    "internalType": "address",
                    "name": "operator",
                    "type": "address"
                },
                {
                    "indexed": false,
                    "internalType": "bool",
                    "name": "approved",
                    "type": "bool"
                }
            ],
            "name": "ApprovalForAll",
            "type": "event"
        },
        {
            "anonymous": false,
            "inputs": [
                {
                    "indexed": true,
                    "internalType": "address",
                    "name": "from",
                    "type": "address"
                },
                {
                    "indexed": true,
                    "internalType": "address",
                    "name": "to",
                    "type": "address"
                },
                {
                    "indexed": true,
                    "internalType": "uint256",
                    "name": "tokenId",
                    "type": "uint256"
                }
            ],
            "name": "Transfer",
            "type": "event"
        },
        {
            "anonymous": false,
            "inputs": [
                {
                    "indexed": false,
                    "internalType": "address",
                    "name": "owner",
                    "type": "address"
                },
                {
                    "indexed": false,
                    "internalType": "uint256",
                    "name": "tokenId",
                    "type": "uint256"
                }
            ],
            "name": "minted",
            "type": "event"
        },
        {
            "inputs": [
                {
                    "internalType": "address",
                    "name": "to",
                    "type": "address"
                },
                {
                    "internalType": "uint256",
                    "name": "tokenId",
                    "type": "uint256"
                }
            ],
            "name": "approve",
            "outputs": [],
            "stateMutability": "nonpayable",
            "type": "function"
        },
        {
            "inputs": [
                {
                    "internalType": "address",
                    "name": "owner",
                    "type": "address"
                }
            ],
            "name": "balanceOf",
            "outputs": [
                {
                    "internalType": "uint256",
                    "name": "",
                    "type": "uint256"
                }
            ],
            "stateMutability": "view",
            "type": "function"
        },
        {
            "inputs": [],
            "name": "blindNabler",
            "outputs": [
                {
                    "internalType": "address",
                    "name": "",
                    "type": "address"
                }
            ],
            "stateMutability": "view",
            "type": "function"
        },
        {
            "inputs": [],
            "name": "claim",
            "outputs": [
                {
                    "internalType": "uint256",
                    "name": "",
                    "type": "uint256"
                }
            ],
            "stateMutability": "payable",
            "type": "function"
        },
        {
            "inputs": [
                {
                    "internalType": "uint256",
                    "name": "",
                    "type": "uint256"
                }
            ],
            "name": "death",
            "outputs": [
                {
                    "internalType": "uint256",
                    "name": "",
                    "type": "uint256"
                }
            ],
            "stateMutability": "view",
            "type": "function"
        },
        {
            "inputs": [
                {
                    "internalType": "uint256",
                    "name": "tokenId",
                    "type": "uint256"
                }
            ],
            "name": "getApproved",
            "outputs": [
                {
                    "internalType": "address",
                    "name": "",
                    "type": "address"
                }
            ],
            "stateMutability": "view",
            "type": "function"
        },
        {
            "inputs": [
                {
                    "internalType": "address",
                    "name": "owner",
                    "type": "address"
                },
                {
                    "internalType": "address",
                    "name": "operator",
                    "type": "address"
                }
            ],
            "name": "isApprovedForAll",
            "outputs": [
                {
                    "internalType": "bool",
                    "name": "",
                    "type": "bool"
                }
            ],
            "stateMutability": "view",
            "type": "function"
        },
        {
            "inputs": [],
            "name": "name",
            "outputs": [
                {
                    "internalType": "string",
                    "name": "",
                    "type": "string"
                }
            ],
            "stateMutability": "view",
            "type": "function"
        },
        {
            "inputs": [
                {
                    "internalType": "uint256",
                    "name": "tokenId",
                    "type": "uint256"
                }
            ],
            "name": "ownerOf",
            "outputs": [
                {
                    "internalType": "address",
                    "name": "",
                    "type": "address"
                }
            ],
            "stateMutability": "view",
            "type": "function"
        },
        {
            "inputs": [],
            "name": "price",
            "outputs": [
                {
                    "internalType": "uint256",
                    "name": "",
                    "type": "uint256"
                }
            ],
            "stateMutability": "view",
            "type": "function"
        },
        {
            "inputs": [
                {
                    "internalType": "address",
                    "name": "from",
                    "type": "address"
                },
                {
                    "internalType": "address",
                    "name": "to",
                    "type": "address"
                },
                {
                    "internalType": "uint256",
                    "name": "tokenId",
                    "type": "uint256"
                }
            ],
            "name": "safeTransferFrom",
            "outputs": [],
            "stateMutability": "nonpayable",
            "type": "function"
        },
        {
            "inputs": [
                {
                    "internalType": "address",
                    "name": "from",
                    "type": "address"
                },
                {
                    "internalType": "address",
                    "name": "to",
                    "type": "address"
                },
                {
                    "internalType": "uint256",
                    "name": "tokenId",
                    "type": "uint256"
                },
                {
                    "internalType": "bytes",
                    "name": "_data",
                    "type": "bytes"
                }
            ],
            "name": "safeTransferFrom",
            "outputs": [],
            "stateMutability": "nonpayable",
            "type": "function"
        },
        {
            "inputs": [
                {
                    "internalType": "address",
                    "name": "operator",
                    "type": "address"
                },
                {
                    "internalType": "bool",
                    "name": "approved",
                    "type": "bool"
                }
            ],
            "name": "setApprovalForAll",
            "outputs": [],
            "stateMutability": "nonpayable",
            "type": "function"
        },
        {
            "inputs": [
                {
                    "internalType": "bytes4",
                    "name": "interfaceId",
                    "type": "bytes4"
                }
            ],
            "name": "supportsInterface",
            "outputs": [
                {
                    "internalType": "bool",
                    "name": "",
                    "type": "bool"
                }
            ],
            "stateMutability": "view",
            "type": "function"
        },
        {
            "inputs": [],
            "name": "symbol",
            "outputs": [
                {
                    "internalType": "string",
                    "name": "",
                    "type": "string"
                }
            ],
            "stateMutability": "view",
            "type": "function"
        },
        {
            "inputs": [
                {
                    "internalType": "uint256",
                    "name": "tokenId",
                    "type": "uint256"
                }
            ],
            "name": "tokenURI",
            "outputs": [
                {
                    "internalType": "string",
                    "name": "",
                    "type": "string"
                }
            ],
            "stateMutability": "view",
            "type": "function"
        },
        {
            "inputs": [
                {
                    "internalType": "address",
                    "name": "from",
                    "type": "address"
                },
                {
                    "internalType": "address",
                    "name": "to",
                    "type": "address"
                },
                {
                    "internalType": "uint256",
                    "name": "tokenId",
                    "type": "uint256"
                }
            ],
            "name": "transferFrom",
            "outputs": [],
            "stateMutability": "nonpayable",
            "type": "function"
        },
        {
            "inputs": [
                {
                    "internalType": "uint256",
                    "name": "",
                    "type": "uint256"
                }
            ],
            "name": "uriRef",
            "outputs": [
                {
                    "internalType": "uint256",
                    "name": "",
                    "type": "uint256"
                }
            ],
            "stateMutability": "view",
            "type": "function"
        }
    ],
    "bytecode": "6080604052670de0b6b3a76400006008553480156200001d57600080fd5b5060405180604001604052806005815260200164426f6e657360d81b815250604051806040016040528060058152602001642127a722ad60d91b81525081600090805190602001906200007292919062000091565b5080516200008890600190602084019062000091565b50505062000174565b8280546200009f9062000137565b90600052602060002090601f016020900481019282620000c357600085556200010e565b82601f10620000de57805160ff19168380011785556200010e565b828001600101855582156200010e579182015b828111156200010e578251825591602001919060010190620000f1565b506200011c92915062000120565b5090565b5b808211156200011c576000815560010162000121565b600181811c908216806200014c57607f821691505b602082108114156200016e57634e487b7160e01b600052602260045260246000fd5b50919050565b61179f80620001846000396000f3fe6080604052600436106101085760003560e01c80636bcfae5011610095578063a22cb46511610064578063a22cb465146102d4578063b88d4fde146102f4578063c40cdf6814610314578063c87b56dd14610341578063e985e9c51461036157600080fd5b80636bcfae501461026157806370a082311461028957806395d89b41146102a9578063a035b1fe146102be57600080fd5b8063095ea7b3116100dc578063095ea7b3146101d757806323b872dd146101f957806342842e0e146102195780634e71d92d146102395780636352211e1461024157600080fd5b8062192f631461010d57806301ffc9a71461014d57806306fdde031461017d578063081812fc1461019f575b600080fd5b34801561011957600080fd5b5061013a61012836600461123b565b60066020526000908152604090205481565b6040519081526020015b60405180910390f35b34801561015957600080fd5b5061016d61016836600461126d565b6103aa565b6040519015158152602001610144565b34801561018957600080fd5b506101926103fc565b60405161014491906112e9565b3480156101ab57600080fd5b506101bf6101ba36600461123b565b61048e565b6040516001600160a01b039091168152602001610144565b3480156101e357600080fd5b506101f76101f2366004611318565b610528565b005b34801561020557600080fd5b506101f7610214366004611342565b61063e565b34801561022557600080fd5b506101f7610234366004611342565b61066f565b61013a61068a565b34801561024d57600080fd5b506101bf61025c36600461123b565b610848565b34801561026d57600080fd5b506101bf73807a1752402d21400d555e1cd7f175566088b95581565b34801561029557600080fd5b5061013a6102a436600461137e565b6108bf565b3480156102b557600080fd5b50610192610946565b3480156102ca57600080fd5b5061013a60085481565b3480156102e057600080fd5b506101f76102ef366004611399565b610955565b34801561030057600080fd5b506101f761030f3660046113eb565b610a1a565b34801561032057600080fd5b5061013a61032f36600461123b565b60076020526000908152604090205481565b34801561034d57600080fd5b5061019261035c36600461123b565b610a52565b34801561036d57600080fd5b5061016d61037c3660046114c7565b6001600160a01b03918216600090815260056020908152604080832093909416825291909152205460ff1690565b60006001600160e01b031982166380ac58cd60e01b14806103db57506001600160e01b03198216635b5e139f60e01b145b806103f657506301ffc9a760e01b6001600160e01b03198316145b92915050565b60606000805461040b906114fa565b80601f0160208091040260200160405190810160405280929190818152602001828054610437906114fa565b80156104845780601f1061045957610100808354040283529160200191610484565b820191906000526020600020905b81548152906001019060200180831161046757829003601f168201915b5050505050905090565b6000818152600260205260408120546001600160a01b031661050c5760405162461bcd60e51b815260206004820152602c60248201527f4552433732313a20617070726f76656420717565727920666f72206e6f6e657860448201526b34b9ba32b73a103a37b5b2b760a11b60648201526084015b60405180910390fd5b506000908152600460205260409020546001600160a01b031690565b600061053382610848565b9050806001600160a01b0316836001600160a01b031614156105a15760405162461bcd60e51b815260206004820152602160248201527f4552433732313a20617070726f76616c20746f2063757272656e74206f776e656044820152603960f91b6064820152608401610503565b336001600160a01b03821614806105bd57506105bd813361037c565b61062f5760405162461bcd60e51b815260206004820152603860248201527f4552433732313a20617070726f76652063616c6c6572206973206e6f74206f7760448201527f6e6572206e6f7220617070726f76656420666f7220616c6c00000000000000006064820152608401610503565b6106398383610b9a565b505050565b6106483382610c08565b6106645760405162461bcd60e51b815260040161050390611535565b610639838383610cff565b61063983838360405180602001604052806000815250610a1a565b600060085434101561069b57600080fd5b6103e86008546103ed6106ae919061159c565b6106b891906115d1565b60085560405160009073807a1752402d21400d555e1cd7f175566088b9559034908381818185875af1925050503d8060008114610711576040519150601f19603f3d011682016040523d82523d6000602084013e610716565b606091505b50509050806107585760405162461bcd60e51b815260206004820152600e60248201526d18dbdd5b19081b9bdd081cd95b9960921b6044820152606401610503565b610766600980546001019055565b600061077160095490565b905061077d3382610e9f565b6000818152600660205260408120429055308261079b6001436115e5565b60405160609390931b6bffffffffffffffffffffffff19166020840152603483019190915240605482015260740160408051601f198184030181529190528051602090910120905060006107f1610320836115fc565b60008481526007602090815260409182902083905581513381529081018690529192507fb7656808f0e04b4af7a20f7ef1caa7669f0d781f1ca4cba31a3ba467880766c9910160405180910390a150909392505050565b6000818152600260205260408120546001600160a01b0316806103f65760405162461bcd60e51b815260206004820152602960248201527f4552433732313a206f776e657220717565727920666f72206e6f6e657869737460448201526832b73a103a37b5b2b760b91b6064820152608401610503565b60006001600160a01b03821661092a5760405162461bcd60e51b815260206004820152602a60248201527f4552433732313a2062616c616e636520717565727920666f7220746865207a65604482015269726f206164647265737360b01b6064820152608401610503565b506001600160a01b031660009081526003602052604090205490565b60606001805461040b906114fa565b6001600160a01b0382163314156109ae5760405162461bcd60e51b815260206004820152601960248201527f4552433732313a20617070726f766520746f2063616c6c6572000000000000006044820152606401610503565b3360008181526005602090815260408083206001600160a01b03871680855290835292819020805460ff191686151590811790915590519081529192917f17307eab39ab6107e8899845ad3d59bd9653f200f220920489ca2b5937696c31910160405180910390a35050565b610a243383610c08565b610a405760405162461bcd60e51b815260040161050390611535565b610a4c84848484610fe1565b50505050565b6000818152600260205260409020546060906001600160a01b0316610ad15760405162461bcd60e51b815260206004820152602f60248201527f4552433732314d657461646174613a2055524920717565727920666f72206e6f60448201526e3732bc34b9ba32b73a103a37b5b2b760891b6064820152608401610503565b6000610ae860408051602081019091526000815290565b60008481526006602052604081205491925090610b0590426115e5565b9050600062015180821015610b1c57506001610b66565b6202a300821015610b2f57506002610b66565b6203f480821015610b4257506003610b66565b62093a80821015610b5557506004610b66565b506000848152600760205260409020545b82610b7082611014565b604051602001610b81929190611610565b6040516020818303038152906040529350505050919050565b600081815260046020526040902080546001600160a01b0319166001600160a01b0384169081179091558190610bcf82610848565b6001600160a01b03167f8c5be1e5ebec7d5bd14f71427d1e84f3dd0314c0f7b2291e5b200ac8c7c3b92560405160405180910390a45050565b6000818152600260205260408120546001600160a01b0316610c815760405162461bcd60e51b815260206004820152602c60248201527f4552433732313a206f70657261746f7220717565727920666f72206e6f6e657860448201526b34b9ba32b73a103a37b5b2b760a11b6064820152608401610503565b6000610c8c83610848565b9050806001600160a01b0316846001600160a01b03161480610cc75750836001600160a01b0316610cbc8461048e565b6001600160a01b0316145b80610cf757506001600160a01b0380821660009081526005602090815260408083209388168352929052205460ff165b949350505050565b826001600160a01b0316610d1282610848565b6001600160a01b031614610d7a5760405162461bcd60e51b815260206004820152602960248201527f4552433732313a207472616e73666572206f6620746f6b656e2074686174206960448201526839903737ba1037bbb760b91b6064820152608401610503565b6001600160a01b038216610ddc5760405162461bcd60e51b8152602060048201526024808201527f4552433732313a207472616e7366657220746f20746865207a65726f206164646044820152637265737360e01b6064820152608401610503565b610de7600082610b9a565b6001600160a01b0383166000908152600360205260408120805460019290610e109084906115e5565b90915550506001600160a01b0382166000908152600360205260408120805460019290610e3e90849061164f565b909155505060008181526002602052604080822080546001600160a01b0319166001600160a01b0386811691821790925591518493918716917fddf252ad1be2c89b69c2b068fc378daa952ba7f163c4a11628f55a4df523b3ef91a4505050565b6001600160a01b038216610ef55760405162461bcd60e51b815260206004820181905260248201527f4552433732313a206d696e7420746f20746865207a65726f20616464726573736044820152606401610503565b6000818152600260205260409020546001600160a01b031615610f5a5760405162461bcd60e51b815260206004820152601c60248201527f4552433732313a20746f6b656e20616c7265616479206d696e746564000000006044820152606401610503565b6001600160a01b0382166000908152600360205260408120805460019290610f8390849061164f565b909155505060008181526002602052604080822080546001600160a01b0319166001600160a01b03861690811790915590518392907fddf252ad1be2c89b69c2b068fc378daa952ba7f163c4a11628f55a4df523b3ef908290a45050565b610fec848484610cff565b610ff88484848461113d565b610a4c5760405162461bcd60e51b815260040161050390611667565b6060816110385750506040805180820190915260018152600360fc1b602082015290565b8160005b8115611062578061104c816116b9565b915061105b9050600a836115d1565b915061103c565b60008167ffffffffffffffff81111561107d5761107d6113d5565b6040519080825280601f01601f1916602001820160405280156110a7576020820181803683370190505b509050815b8515611134576110bd6001826115e5565b905060006110cc600a886115d1565b6110d790600a61159c565b6110e190886115e5565b6110ec9060306116d4565b905060008160f81b905080848481518110611109576111096116f9565b60200101906001600160f81b031916908160001a90535061112b600a896115d1565b975050506110ac565b50949350505050565b60006001600160a01b0384163b1561123057604051630a85bd0160e11b81526001600160a01b0385169063150b7a029061118190339089908890889060040161170f565b6020604051808303816000875af19250505080156111bc575060408051601f3d908101601f191682019092526111b99181019061174c565b60015b611216573d8080156111ea576040519150601f19603f3d011682016040523d82523d6000602084013e6111ef565b606091505b50805161120e5760405162461bcd60e51b815260040161050390611667565b805181602001fd5b6001600160e01b031916630a85bd0160e11b149050610cf7565b506001949350505050565b60006020828403121561124d57600080fd5b5035919050565b6001600160e01b03198116811461126a57600080fd5b50565b60006020828403121561127f57600080fd5b813561128a81611254565b9392505050565b60005b838110156112ac578181015183820152602001611294565b83811115610a4c5750506000910152565b600081518084526112d5816020860160208601611291565b601f01601f19169290920160200192915050565b60208152600061128a60208301846112bd565b80356001600160a01b038116811461131357600080fd5b919050565b6000806040838503121561132b57600080fd5b611334836112fc565b946020939093013593505050565b60008060006060848603121561135757600080fd5b611360846112fc565b925061136e602085016112fc565b9150604084013590509250925092565b60006020828403121561139057600080fd5b61128a826112fc565b600080604083850312156113ac57600080fd5b6113b5836112fc565b9150602083013580151581146113ca57600080fd5b809150509250929050565b634e487b7160e01b600052604160045260246000fd5b6000806000806080858703121561140157600080fd5b61140a856112fc565b9350611418602086016112fc565b925060408501359150606085013567ffffffffffffffff8082111561143c57600080fd5b818701915087601f83011261145057600080fd5b813581811115611462576114626113d5565b604051601f8201601f19908116603f0116810190838211818310171561148a5761148a6113d5565b816040528281528a60208487010111156114a357600080fd5b82602086016020830137600060208483010152809550505050505092959194509250565b600080604083850312156114da57600080fd5b6114e3836112fc565b91506114f1602084016112fc565b90509250929050565b600181811c9082168061150e57607f821691505b6020821081141561152f57634e487b7160e01b600052602260045260246000fd5b50919050565b60208082526031908201527f4552433732313a207472616e736665722063616c6c6572206973206e6f74206f6040820152701ddb995c881b9bdc88185c1c1c9bdd9959607a1b606082015260800190565b634e487b7160e01b600052601160045260246000fd5b60008160001904831182151516156115b6576115b6611586565b500290565b634e487b7160e01b600052601260045260246000fd5b6000826115e0576115e06115bb565b500490565b6000828210156115f7576115f7611586565b500390565b60008261160b5761160b6115bb565b500690565b60008351611622818460208801611291565b835190830190611636818360208801611291565b64173539b7b760d91b9101908152600501949350505050565b6000821982111561166257611662611586565b500190565b60208082526032908201527f4552433732313a207472616e7366657220746f206e6f6e20455243373231526560408201527131b2b4bb32b91034b6b83632b6b2b73a32b960711b606082015260800190565b60006000198214156116cd576116cd611586565b5060010190565b600060ff821660ff84168060ff038211156116f1576116f1611586565b019392505050565b634e487b7160e01b600052603260045260246000fd5b6001600160a01b0385811682528416602082015260408101839052608060608201819052600090611742908301846112bd565b9695505050505050565b60006020828403121561175e57600080fd5b815161128a8161125456fea26469706673582212207aa0e57941019656112af119930dec76ff9a837a6cb5b33fcbc00d5eb2d8374664736f6c634300080a0033",
    "sourcePath": "/home/honk/Documents/GitHub/Bonez/packages/hardhat/contracts/Bonez(Fast).sol",
    "compiler": {
        "name": "solc",
        "version": "0.8.10+commit.fc410830"
    },
    "functionHashes": {
        "approve(address,uint256)": "095ea7b3",
        "balanceOf(address)": "70a08231",
        "blindNabler()": "6bcfae50",
        "claim()": "4e71d92d",
        "death(uint256)": "00192f63",
        "getApproved(uint256)": "081812fc",
        "isApprovedForAll(address,address)": "e985e9c5",
        "name()": "06fdde03",
        "ownerOf(uint256)": "6352211e",
        "price()": "a035b1fe",
        "safeTransferFrom(address,address,uint256)": "42842e0e",
        "safeTransferFrom(address,address,uint256,bytes)": "b88d4fde",
        "setApprovalForAll(address,bool)": "a22cb465",
        "supportsInterface(bytes4)": "01ffc9a7",
        "symbol()": "95d89b41",
        "tokenURI(uint256)": "c87b56dd",
        "transferFrom(address,address,uint256)": "23b872dd",
        "uriRef(uint256)": "c40cdf68"
    },
    "gasEstimates": {
        "creation": {
            "codeDepositCost": "1209400",
            "executionCost": "infinite",
            "totalCost": "infinite"
        },
        "external": {
            "approve(address,uint256)": "infinite",
            "balanceOf(address)": "2623",
            "blindNabler()": "239",
            "claim()": "infinite",
            "death(uint256)": "2451",
            "getApproved(uint256)": "4782",
            "isApprovedForAll(address,address)": "infinite",
            "name()": "infinite",
            "ownerOf(uint256)": "2667",
            "price()": "2373",
            "safeTransferFrom(address,address,uint256)": "infinite",
            "safeTransferFrom(address,address,uint256,bytes)": "infinite",
            "setApprovalForAll(address,bool)": "26650",
            "supportsInterface(bytes4)": "567",
            "symbol()": "infinite",
            "tokenURI(uint256)": "infinite",
            "transferFrom(address,address,uint256)": "infinite",
            "uriRef(uint256)": "2493"
        },
        "internal": {
            "uint2str(uint256)": "infinite"
        }
    }
}